{
  "contractName": "TokenVesting",
  "abi": [
    {
      "inputs": [
        {
          "internalType": "address",
          "name": "beneficiary",
          "type": "address"
        },
        {
          "internalType": "uint256",
          "name": "initialRelease",
          "type": "uint256"
        }
      ],
      "stateMutability": "nonpayable",
      "type": "constructor"
    },
    {
      "anonymous": false,
      "inputs": [
        {
          "indexed": false,
          "internalType": "address",
          "name": "token",
          "type": "address"
        },
        {
          "indexed": false,
          "internalType": "uint256",
          "name": "amount",
          "type": "uint256"
        }
      ],
      "name": "TokensReleased",
      "type": "event"
    },
    {
      "inputs": [],
      "name": "beneficiary",
      "outputs": [
        {
          "internalType": "address",
          "name": "",
          "type": "address"
        }
      ],
      "stateMutability": "view",
      "type": "function",
      "constant": true
    },
    {
      "inputs": [],
      "name": "start",
      "outputs": [
        {
          "internalType": "uint256",
          "name": "",
          "type": "uint256"
        }
      ],
      "stateMutability": "view",
      "type": "function",
      "constant": true
    },
    {
      "inputs": [],
      "name": "duration",
      "outputs": [
        {
          "internalType": "uint256",
          "name": "",
          "type": "uint256"
        }
      ],
      "stateMutability": "view",
      "type": "function",
      "constant": true
    },
    {
      "inputs": [],
      "name": "initialRelease",
      "outputs": [
        {
          "internalType": "uint256",
          "name": "",
          "type": "uint256"
        }
      ],
      "stateMutability": "view",
      "type": "function",
      "constant": true
    },
    {
      "inputs": [
        {
          "internalType": "address",
          "name": "token",
          "type": "address"
        }
      ],
      "name": "released",
      "outputs": [
        {
          "internalType": "uint256",
          "name": "",
          "type": "uint256"
        }
      ],
      "stateMutability": "view",
      "type": "function",
      "constant": true
    },
    {
      "inputs": [
        {
          "internalType": "contract IERC20",
          "name": "token",
          "type": "address"
        }
      ],
      "name": "release",
      "outputs": [],
      "stateMutability": "nonpayable",
      "type": "function"
    }
  ],
  "bytecode": "0x61010060405234801561001157600080fd5b5060405161096c38038061096c8339818101604052604081101561003457600080fd5b5080516020909101516001600160a01b0382166100825760405162461bcd60e51b815260040180806020018281038252602d81526020018061093f602d913960400191505060405180910390fd5b606082901b6001600160601b03191660805262eff10060c08190524260a081905260e08390526001600160a01b0390931692916108396101066000398061033052806103c052806104fe525080610105528061054a5280610582525080610373528061052952806105aa525080610132528061023f528061030c52506108396000f3fe608060405234801561001057600080fd5b50600436106100625760003560e01c80630fb5a6b414610067578063191655871461008157806338af3eed146100a95780637b5c2f39146100cd5780639852595c146100d5578063be9a6555146100fb575b600080fd5b61006f610103565b60408051918252519081900360200190f35b6100a76004803603602081101561009757600080fd5b50356001600160a01b0316610127565b005b6100b161030a565b604080516001600160a01b039092168252519081900360200190f35b61006f61032e565b61006f600480360360208110156100eb57600080fd5b50356001600160a01b0316610352565b61006f610371565b7f000000000000000000000000000000000000000000000000000000000000000090565b336001600160a01b037f0000000000000000000000000000000000000000000000000000000000000000161461018e5760405162461bcd60e51b81526004018080602001828103825260258152602001806107be6025913960400191505060405180910390fd5b600061019982610395565b9050600081116101f0576040805162461bcd60e51b815260206004820152601f60248201527f546f6b656e56657374696e673a206e6f20746f6b656e73206172652064756500604482015290519081900360640190fd5b6001600160a01b03821660009081526020819052604090205461021390826103f1565b6001600160a01b0380841660008181526020818152604080832095909555845163a9059cbb60e01b81527f00000000000000000000000000000000000000000000000000000000000000009094166004850152602484018690529351919363a9059cbb936044808201949293918390030190829087803b15801561029657600080fd5b505af11580156102aa573d6000803e3d6000fd5b505050506040513d60208110156102c057600080fd5b5050604080516001600160a01b03841681526020810183905281517fc7798891864187665ac6dd119286e44ec13f014527aeeb2b8eb3fd413df93179929181900390910190a15050565b7f000000000000000000000000000000000000000000000000000000000000000090565b7f000000000000000000000000000000000000000000000000000000000000000090565b6001600160a01b0381166000908152602081905260409020545b919050565b7f000000000000000000000000000000000000000000000000000000000000000090565b6001600160a01b0381166000908152602081905260408120546103eb906103e56103be85610452565b7f0000000000000000000000000000000000000000000000000000000000000000906103f1565b906105e4565b92915050565b60008282018381101561044b576040805162461bcd60e51b815260206004820152601b60248201527f536166654d6174683a206164646974696f6e206f766572666c6f770000000000604482015290519081900360640190fd5b9392505050565b600080826001600160a01b03166370a08231306040518263ffffffff1660e01b815260040180826001600160a01b0316815260200191505060206040518083038186803b1580156104a257600080fd5b505afa1580156104b6573d6000803e3d6000fd5b505050506040513d60208110156104cc57600080fd5b50516001600160a01b038416600090815260208190526040812054919250906104f69083906103f1565b9050610522817f00000000000000000000000000000000000000000000000000000000000000006105e4565b905061056e7f00000000000000000000000000000000000000000000000000000000000000007f00000000000000000000000000000000000000000000000000000000000000006103f1565b421061057d57915061036c9050565b6105db7f00000000000000000000000000000000000000000000000000000000000000006105d56105ce427f00000000000000000000000000000000000000000000000000000000000000006105e4565b8490610626565b9061067f565b9250505061036c565b600061044b83836040518060400160405280601e81526020017f536166654d6174683a207375627472616374696f6e206f766572666c6f7700008152506106c1565b600082610635575060006103eb565b8282028284828161064257fe5b041461044b5760405162461bcd60e51b81526004018080602001828103825260218152602001806107e36021913960400191505060405180910390fd5b600061044b83836040518060400160405280601a81526020017f536166654d6174683a206469766973696f6e206279207a65726f000000000000815250610758565b600081848411156107505760405162461bcd60e51b81526004018080602001828103825283818151815260200191508051906020019080838360005b838110156107155781810151838201526020016106fd565b50505050905090810190601f1680156107425780820380516001836020036101000a031916815260200191505b509250505060405180910390fd5b505050900390565b600081836107a75760405162461bcd60e51b81526020600482018181528351602484015283519092839260449091019190850190808383600083156107155781810151838201526020016106fd565b5060008385816107b357fe5b049594505050505056fe546865206d6573736167652073656e646572206973206e6f742062656e6566696369617279536166654d6174683a206d756c7469706c69636174696f6e206f766572666c6f77a264697066735822122081785ce93eb2a25c3e96f1a28aa4c44fe971e235b88c5ab1bce2fd99415065a464736f6c634300060c0033546f6b656e56657374696e673a2062656e656669636961727920697320746865207a65726f2061646472657373",
  "immutableReferences": {
    "501": [
      {
        "length": 32,
        "start": 306
      },
      {
        "length": 32,
        "start": 575
      },
      {
        "length": 32,
        "start": 780
      }
    ],
    "503": [
      {
        "length": 32,
        "start": 883
      },
      {
        "length": 32,
        "start": 1321
      },
      {
        "length": 32,
        "start": 1450
      }
    ],
    "505": [
      {
        "length": 32,
        "start": 261
      },
      {
        "length": 32,
        "start": 1354
      },
      {
        "length": 32,
        "start": 1410
      }
    ],
    "507": [
      {
        "length": 32,
        "start": 816
      },
      {
        "length": 32,
        "start": 960
      },
      {
        "length": 32,
        "start": 1278
      }
    ]
  },
  "source": "pragma solidity 0.6.12;\n\nimport \"./common/IERC20.sol\";\nimport \"./library/SafeMath.sol\";\n\n/**\n * @title TokenVesting\n * @dev A token holder contract that can release its token balance gradually like a\n * typical vesting scheme, with a vesting period.\n */\ncontract TokenVesting {\n    // The vesting schedule is time-based (i.e. using block timestamps as opposed to e.g. block numbers), and is\n    // therefore sensitive to timestamp manipulation (which is something miners can do, to a certain degree). Therefore,\n    // it is recommended to avoid using short time durations (less than a minute).\n    // solhint-disable not-rely-on-time\n\n    using SafeMath for uint256;\n\n    event TokensReleased(address token, uint256 amount);\n\n    // beneficiary of tokens after they are released\n    address private immutable _beneficiary;\n\n    // Durations and timestamps are expressed in UNIX time, the same units as block.timestamp.\n    uint256 private immutable _start;\n    uint256 private immutable _duration;\n    // The amount of token can be released with the first release\n    uint256 private immutable _initialRelease;\n\n    mapping (address => uint256) private _released;\n\n    /**\n     * @dev Creates a vesting contract that vests its balance of any ERC20 token to the\n     * beneficiary, gradually in a linear fashion until start + duration. By then all\n     * of the balance will have vested.\n     * @param beneficiary address of the beneficiary to whom vested tokens are transferred\n     * @param initialRelease The amount of token can be released with the first release\n     */\n    constructor (address beneficiary, uint256 initialRelease) public {\n        require(beneficiary != address(0), \"TokenVesting: beneficiary is the zero address\");\n\n        _beneficiary = beneficiary;\n        _duration = 182 days;\n        _start = block.timestamp;\n        _initialRelease = initialRelease;\n    }\n\n    // Copied and modified Openzepplin TokenVesting contract:\n    // https://github.com/OpenZeppelin/openzeppelin-contracts/blob/release-v3.0.0/contracts/drafts/TokenVesting.sol\n\n    /**\n     * @return the beneficiary of the tokens.\n     */\n    function beneficiary() public view returns (address) {\n        return _beneficiary;\n    }\n\n    /**\n     * @return the start time of the token vesting.\n     */\n    function start() public view returns (uint256) {\n        return _start;\n    }\n\n    /**\n     * @return the duration of the token vesting.\n     */\n    function duration() public view returns (uint256) {\n        return _duration;\n    }\n\n    /**\n     * @return the initial release of the tokens.\n     */\n    function initialRelease() public view returns (uint256) {\n        return _initialRelease;\n    }\n\n    /**\n     * @return the amount of the token released.\n     */\n    function released(address token) public view returns (uint256) {\n        return _released[token];\n    }\n\n    /**\n     * @notice Transfers vested tokens to beneficiary.\n     * @param token ERC20 token which is being vested\n     */\n    function release(IERC20 token) public {\n        require (msg.sender == _beneficiary, \"The message sender is not beneficiary\");\n        \n        uint256 unreleased = _releasableAmount(token);\n\n        require(unreleased > 0, \"TokenVesting: no tokens are due\");\n\n        _released[address(token)] = _released[address(token)].add(unreleased);\n\n        token.transfer(_beneficiary, unreleased);\n\n        emit TokensReleased(address(token), unreleased);\n    }\n\n    /**\n     * @dev Calculates the amount that has already vested but hasn't been released yet.\n     * @param token ERC20 token which is being vested\n     */\n    function _releasableAmount(IERC20 token) private view returns (uint256) {\n        return (_initialRelease.add(_vestedAmount(token))).sub(_released[address(token)]);\n    }\n\n    /**\n     * @dev Calculates the amount that has already vested.\n     * @param token ERC20 token which is being vested\n     */\n    function _vestedAmount(IERC20 token) private view returns (uint256) {\n        uint256 currentBalance = token.balanceOf(address(this));\n        uint256 totalBalance = currentBalance.add(_released[address(token)]);\n        totalBalance = totalBalance.sub(_initialRelease);\n\n        if (block.timestamp >= _start.add(_duration)) {\n            return totalBalance;\n        } else {\n            return totalBalance.mul(block.timestamp.sub(_start)).div(_duration);\n        }\n    }\n}",
  "sourcePath": "/Volumes/Workspace/tasks/Upbots-a/token-internal/token-vesting/contracts/TokenVesting.sol",
  "compiler": {
    "name": "solc",
    "version": "0.6.12+commit.27d51765.Emscripten.clang"
  },
  "schemaVersion": "3.4.3",
  "updatedAt": "2021-09-14T10:28:50.234Z",
  "networkType": "ethereum",
  "devdoc": {
    "details": "A token holder contract that can release its token balance gradually like a typical vesting scheme, with a vesting period.",
    "kind": "dev",
    "methods": {
      "beneficiary()": {
        "returns": {
          "_0": "the beneficiary of the tokens."
        }
      },
      "constructor": {
        "details": "Creates a vesting contract that vests its balance of any ERC20 token to the beneficiary, gradually in a linear fashion until start + duration. By then all of the balance will have vested.",
        "params": {
          "beneficiary": "address of the beneficiary to whom vested tokens are transferred",
          "initialRelease": "The amount of token can be released with the first release"
        }
      },
      "duration()": {
        "returns": {
          "_0": "the duration of the token vesting."
        }
      },
      "initialRelease()": {
        "returns": {
          "_0": "the initial release of the tokens."
        }
      },
      "release(address)": {
        "params": {
          "token": "ERC20 token which is being vested"
        }
      },
      "released(address)": {
        "returns": {
          "_0": "the amount of the token released."
        }
      },
      "start()": {
        "returns": {
          "_0": "the start time of the token vesting."
        }
      }
    },
    "title": "TokenVesting",
    "version": 1
  },
  "userdoc": {
    "kind": "user",
    "methods": {
      "release(address)": {
        "notice": "Transfers vested tokens to beneficiary."
      }
    },
    "version": 1
  }
}